{
  "deployments": [
    {
      "transactions": [
        {
          "hash": "0xa26744ea2b963824afeb39bfd40e923c356dae77cef3873cde443414ab4c5ccd",
          "transactionType": "CALL",
          "contractName": null,
          "contractAddress": "0x9c92f11db296896c6d5e1bbbf3a3f44d52ea51ad",
          "function": "setPeer(uint32,bytes32)",
          "arguments": [
            "40231",
            "0x0000000000000000000000009c92f11db296896c6d5e1bbbf3a3f44d52ea51ad"
          ],
          "transaction": {
            "from": "0x64a822f980dc5f126215d75d11dd8114ed0bdb5f",
            "to": "0x9c92f11db296896c6d5e1bbbf3a3f44d52ea51ad",
            "gas": "0x100cf",
            "value": "0x0",
            "input": "0x3400288b0000000000000000000000000000000000000000000000000000000000009d270000000000000000000000009c92f11db296896c6d5e1bbbf3a3f44d52ea51ad",
            "nonce": "0x400",
            "chainId": "0x14a34"
          },
          "additionalContracts": [],
          "isFixedGasLimit": false
        },
        {
          "hash": "0xddb8321f6f4c4f18b611240b69f754112a1589a34b7cf0c17e1aca70fca70fd3",
          "transactionType": "CALL",
          "contractName": null,
          "contractAddress": "0x52983550dd71de0670751f29b1306b64cf9e1f90",
          "function": "setPeer(uint32,bytes32)",
          "arguments": [
            "40231",
            "0x00000000000000000000000052983550dd71de0670751f29b1306b64cf9e1f90"
          ],
          "transaction": {
            "from": "0x64a822f980dc5f126215d75d11dd8114ed0bdb5f",
            "to": "0x52983550dd71de0670751f29b1306b64cf9e1f90",
            "gas": "0x100f1",
            "value": "0x0",
            "input": "0x3400288b0000000000000000000000000000000000000000000000000000000000009d2700000000000000000000000052983550dd71de0670751f29b1306b64cf9e1f90",
            "nonce": "0x401",
            "chainId": "0x14a34"
          },
          "additionalContracts": [],
          "isFixedGasLimit": false
        },
        {
          "hash": "0xc1c13207209ff2a382baf0a36c4f570d06af701f25414de9556198cbb86ddb04",
          "transactionType": "CALL",
          "contractName": null,
          "contractAddress": "0x9c92f11db296896c6d5e1bbbf3a3f44d52ea51ad",
          "function": "setToken(address)",
          "arguments": [
            "0x52983550dD71De0670751F29b1306B64CF9e1f90"
          ],
          "transaction": {
            "from": "0x64a822f980dc5f126215d75d11dd8114ed0bdb5f",
            "to": "0x9c92f11db296896c6d5e1bbbf3a3f44d52ea51ad",
            "gas": "0x8d84",
            "value": "0x0",
            "input": "0x144fa6d700000000000000000000000052983550dd71de0670751f29b1306b64cf9e1f90",
            "nonce": "0x402",
            "chainId": "0x14a34"
          },
          "additionalContracts": [],
          "isFixedGasLimit": false
        }
      ],
      "receipts": [
        {
          "status": "0x1",
          "cumulativeGasUsed": "0x221601",
          "logs": [
            {
              "address": "0x9c92f11db296896c6d5e1bbbf3a3f44d52ea51ad",
              "topics": [
                "0x238399d427b947898edb290f5ff0f9109849b1c3ba196a42e35f00c50a54b98b"
              ],
              "data": "0x0000000000000000000000000000000000000000000000000000000000009d270000000000000000000000009c92f11db296896c6d5e1bbbf3a3f44d52ea51ad",
              "blockHash": "0x6a1b567ecc29f1bb20d833762e9081de285258a1583b1a3ce4300edfec8fd00a",
              "blockNumber": "0x1041e28",
              "transactionHash": "0xa26744ea2b963824afeb39bfd40e923c356dae77cef3873cde443414ab4c5ccd",
              "transactionIndex": "0xb",
              "logIndex": "0xf",
              "removed": false
            }
          ],
          "logsBloom": "0x00000080000000000000000000000000000000000000000000000000000000000000000000000000000000000000000000000000000000000800000000000000000000004000000000000000000000000000000000000000000000000000200000000000000000000000000000000000000000000000000000000000000000000000000000000000000000000000000000000000000000000000000000000000000000000000000000000000000000000000000000000000000002000000000000000000000000000000000000000000000000000000000000040000000000000000000000000000000000000000000000000000000000000000000000000000",
          "type": "0x2",
          "transactionHash": "0xa26744ea2b963824afeb39bfd40e923c356dae77cef3873cde443414ab4c5ccd",
          "transactionIndex": "0xb",
          "blockHash": "0x6a1b567ecc29f1bb20d833762e9081de285258a1583b1a3ce4300edfec8fd00a",
          "blockNumber": "0x1041e28",
          "gasUsed": "0xb9ee",
          "effectiveGasPrice": "0xf091a",
          "from": "0x64a822f980dc5f126215d75d11dd8114ed0bdb5f",
          "to": "0x9c92f11db296896c6d5e1bbbf3a3f44d52ea51ad",
          "contractAddress": null,
          "l1BaseFeeScalar": "0x44d",
          "l1BlobBaseFee": "0x1",
          "l1BlobBaseFeeScalar": "0xa118b",
          "l1Fee": "0x85b53624",
          "l1GasPrice": "0x4be6c030",
          "l1GasUsed": "0x640"
        },
        {
          "status": "0x1",
          "cumulativeGasUsed": "0x22d007",
          "logs": [
            {
              "address": "0x52983550dd71de0670751f29b1306b64cf9e1f90",
              "topics": [
                "0x238399d427b947898edb290f5ff0f9109849b1c3ba196a42e35f00c50a54b98b"
              ],
              "data": "0x0000000000000000000000000000000000000000000000000000000000009d2700000000000000000000000052983550dd71de0670751f29b1306b64cf9e1f90",
              "blockHash": "0x6a1b567ecc29f1bb20d833762e9081de285258a1583b1a3ce4300edfec8fd00a",
              "blockNumber": "0x1041e28",
              "transactionHash": "0xddb8321f6f4c4f18b611240b69f754112a1589a34b7cf0c17e1aca70fca70fd3",
              "transactionIndex": "0xc",
              "logIndex": "0x10",
              "removed": false
            }
          ],
          "logsBloom": "0x00000000000000000000000000000000000000000000000000000000000000000000000000000000000000000000000000000000000000000800000000000000000000000000000000000000000000000000000000000000000002000000000000000000000000000000000000000000000000000000000000000000000000000000000000000000000000000000000000000000000000000000000000000000000000000000000000000000000000000000400000000000000002000000000000000000000000000000000000000000000000000000000100040000000000000000000000000000000000000000000000000000000000000000000000000000",
          "type": "0x2",
          "transactionHash": "0xddb8321f6f4c4f18b611240b69f754112a1589a34b7cf0c17e1aca70fca70fd3",
          "transactionIndex": "0xc",
          "blockHash": "0x6a1b567ecc29f1bb20d833762e9081de285258a1583b1a3ce4300edfec8fd00a",
          "blockNumber": "0x1041e28",
          "gasUsed": "0xba06",
          "effectiveGasPrice": "0xf091a",
          "from": "0x64a822f980dc5f126215d75d11dd8114ed0bdb5f",
          "to": "0x52983550dd71de0670751f29b1306b64cf9e1f90",
          "contractAddress": null,
          "l1BaseFeeScalar": "0x44d",
          "l1BlobBaseFee": "0x1",
          "l1BlobBaseFeeScalar": "0xa118b",
          "l1Fee": "0x85b53624",
          "l1GasPrice": "0x4be6c030",
          "l1GasUsed": "0x640"
        },
        {
          "status": "0x1",
          "cumulativeGasUsed": "0x23367c",
          "logs": [],
          "logsBloom": "0x00000000000000000000000000000000000000000000000000000000000000000000000000000000000000000000000000000000000000000000000000000000000000000000000000000000000000000000000000000000000000000000000000000000000000000000000000000000000000000000000000000000000000000000000000000000000000000000000000000000000000000000000000000000000000000000000000000000000000000000000000000000000000000000000000000000000000000000000000000000000000000000000000000000000000000000000000000000000000000000000000000000000000000000000000000000",
          "type": "0x2",
          "transactionHash": "0xc1c13207209ff2a382baf0a36c4f570d06af701f25414de9556198cbb86ddb04",
          "transactionIndex": "0xd",
          "blockHash": "0x6a1b567ecc29f1bb20d833762e9081de285258a1583b1a3ce4300edfec8fd00a",
          "blockNumber": "0x1041e28",
          "gasUsed": "0x6675",
          "effectiveGasPrice": "0xf091a",
          "from": "0x64a822f980dc5f126215d75d11dd8114ed0bdb5f",
          "to": "0x9c92f11db296896c6d5e1bbbf3a3f44d52ea51ad",
          "contractAddress": null,
          "l1BaseFeeScalar": "0x44d",
          "l1BlobBaseFee": "0x1",
          "l1BlobBaseFeeScalar": "0xa118b",
          "l1Fee": "0x85b53624",
          "l1GasPrice": "0x4be6c030",
          "l1GasUsed": "0x640"
        }
      ],
      "libraries": [],
      "pending": [],
      "returns": {},
      "timestamp": 1729862423,
      "chain": 84532,
      "commit": "fce8454"
    },
    {
      "transactions": [
        {
          "hash": "0x616f18cc9378e119743d4d3c75271756bd6518fe77710df67783319cdf26a94f",
          "transactionType": "CALL",
          "contractName": null,
          "contractAddress": "0x9c92f11db296896c6d5e1bbbf3a3f44d52ea51ad",
          "function": "setPeer(uint32,bytes32)",
          "arguments": [
            "40245",
            "0x0000000000000000000000009c92f11db296896c6d5e1bbbf3a3f44d52ea51ad"
          ],
          "transaction": {
            "from": "0x64a822f980dc5f126215d75d11dd8114ed0bdb5f",
            "to": "0x9c92f11db296896c6d5e1bbbf3a3f44d52ea51ad",
            "gas": "0xf73b",
            "value": "0x0",
            "input": "0x3400288b0000000000000000000000000000000000000000000000000000000000009d350000000000000000000000009c92f11db296896c6d5e1bbbf3a3f44d52ea51ad",
            "nonce": "0x1ad",
            "chainId": "0x66eee"
          },
          "additionalContracts": [],
          "isFixedGasLimit": false
        },
        {
          "hash": "0x614998a31d54a1938a8a3fb7777ee7c1ab834d6a6417441becd506ea361c9710",
          "transactionType": "CALL",
          "contractName": null,
          "contractAddress": "0x52983550dd71de0670751f29b1306b64cf9e1f90",
          "function": "setPeer(uint32,bytes32)",
          "arguments": [
            "40245",
            "0x00000000000000000000000052983550dd71de0670751f29b1306b64cf9e1f90"
          ],
          "transaction": {
            "from": "0x64a822f980dc5f126215d75d11dd8114ed0bdb5f",
            "to": "0x52983550dd71de0670751f29b1306b64cf9e1f90",
            "gas": "0xf75b",
            "value": "0x0",
            "input": "0x3400288b0000000000000000000000000000000000000000000000000000000000009d3500000000000000000000000052983550dd71de0670751f29b1306b64cf9e1f90",
            "nonce": "0x1ae",
            "chainId": "0x66eee"
          },
          "additionalContracts": [],
          "isFixedGasLimit": false
        },
        {
          "hash": "0xcdcb1e3122149a051fbdeb4028bc17c797243844cc897b1caef39cbeebd0423b",
          "transactionType": "CALL",
          "contractName": null,
          "contractAddress": "0x9c92f11db296896c6d5e1bbbf3a3f44d52ea51ad",
          "function": "setToken(address)",
          "arguments": [
            "0x52983550dD71De0670751F29b1306B64CF9e1f90"
          ],
          "transaction": {
            "from": "0x64a822f980dc5f126215d75d11dd8114ed0bdb5f",
            "to": "0x9c92f11db296896c6d5e1bbbf3a3f44d52ea51ad",
            "gas": "0x9478",
            "value": "0x0",
            "input": "0x144fa6d700000000000000000000000052983550dd71de0670751f29b1306b64cf9e1f90",
            "nonce": "0x1af",
            "chainId": "0x66eee"
          },
          "additionalContracts": [],
          "isFixedGasLimit": false
        }
      ],
      "receipts": [
        {
          "status": "0x1",
          "cumulativeGasUsed": "0xbc11",
          "logs": [
            {
              "address": "0x9c92f11db296896c6d5e1bbbf3a3f44d52ea51ad",
              "topics": [
                "0x238399d427b947898edb290f5ff0f9109849b1c3ba196a42e35f00c50a54b98b"
              ],
              "data": "0x0000000000000000000000000000000000000000000000000000000000009d350000000000000000000000009c92f11db296896c6d5e1bbbf3a3f44d52ea51ad",
              "blockHash": "0xd2040c2c389e2f40eb3be15ae618a8f02008a6dcb6bd25018ffd3f5305a4424f",
              "blockNumber": "0x5759522",
              "transactionHash": "0x616f18cc9378e119743d4d3c75271756bd6518fe77710df67783319cdf26a94f",
              "transactionIndex": "0x1",
              "logIndex": "0x0",
              "removed": false
            }
          ],
          "logsBloom": "0x00000080000000000000000000000000000000000000000000000000000000000000000000000000000000000000000000000000000000000800000000000000000000004000000000000000000000000000000000000000000000000000200000000000000000000000000000000000000000000000000000000000000000000000000000000000000000000000000000000000000000000000000000000000000000000000000000000000000000000000000000000000000002000000000000000000000000000000000000000000000000000000000000040000000000000000000000000000000000000000000000000000000000000000000000000000",
          "type": "0x2",
          "transactionHash": "0x616f18cc9378e119743d4d3c75271756bd6518fe77710df67783319cdf26a94f",
          "transactionIndex": "0x1",
          "blockHash": "0xd2040c2c389e2f40eb3be15ae618a8f02008a6dcb6bd25018ffd3f5305a4424f",
          "blockNumber": "0x5759522",
          "gasUsed": "0xbc11",
          "effectiveGasPrice": "0x5f5e100",
          "from": "0x64a822f980dc5f126215d75d11dd8114ed0bdb5f",
          "to": "0x9c92f11db296896c6d5e1bbbf3a3f44d52ea51ad",
          "contractAddress": null,
          "gasUsedForL1": "0x223",
          "l1BlockNumber": "0x69f0b3"
        },
        {
          "status": "0x1",
          "cumulativeGasUsed": "0xbc29",
          "logs": [
            {
              "address": "0x52983550dd71de0670751f29b1306b64cf9e1f90",
              "topics": [
                "0x238399d427b947898edb290f5ff0f9109849b1c3ba196a42e35f00c50a54b98b"
              ],
              "data": "0x0000000000000000000000000000000000000000000000000000000000009d3500000000000000000000000052983550dd71de0670751f29b1306b64cf9e1f90",
              "blockHash": "0x7781e12c6a8b6deffa93e0fa787f9782dfbb01310f4e8ef8e2871937b5353346",
              "blockNumber": "0x5759526",
              "transactionHash": "0x614998a31d54a1938a8a3fb7777ee7c1ab834d6a6417441becd506ea361c9710",
              "transactionIndex": "0x1",
              "logIndex": "0x0",
              "removed": false
            }
          ],
          "logsBloom": "0x00000000000000000000000000000000000000000000000000000000000000000000000000000000000000000000000000000000000000000800000000000000000000000000000000000000000000000000000000000000000002000000000000000000000000000000000000000000000000000000000000000000000000000000000000000000000000000000000000000000000000000000000000000000000000000000000000000000000000000000400000000000000002000000000000000000000000000000000000000000000000000000000100040000000000000000000000000000000000000000000000000000000000000000000000000000",
          "type": "0x2",
          "transactionHash": "0x614998a31d54a1938a8a3fb7777ee7c1ab834d6a6417441becd506ea361c9710",
          "transactionIndex": "0x1",
          "blockHash": "0x7781e12c6a8b6deffa93e0fa787f9782dfbb01310f4e8ef8e2871937b5353346",
          "blockNumber": "0x5759526",
          "gasUsed": "0xbc29",
          "effectiveGasPrice": "0x5f5e100",
          "from": "0x64a822f980dc5f126215d75d11dd8114ed0bdb5f",
          "to": "0x52983550dd71de0670751f29b1306b64cf9e1f90",
          "contractAddress": null,
          "gasUsedForL1": "0x223",
          "l1BlockNumber": "0x69f0b3"
        },
        {
          "status": "0x1",
          "cumulativeGasUsed": "0x6836",
          "logs": [],
          "logsBloom": "0x00000000000000000000000000000000000000000000000000000000000000000000000000000000000000000000000000000000000000000000000000000000000000000000000000000000000000000000000000000000000000000000000000000000000000000000000000000000000000000000000000000000000000000000000000000000000000000000000000000000000000000000000000000000000000000000000000000000000000000000000000000000000000000000000000000000000000000000000000000000000000000000000000000000000000000000000000000000000000000000000000000000000000000000000000000000",
          "type": "0x2",
          "transactionHash": "0xcdcb1e3122149a051fbdeb4028bc17c797243844cc897b1caef39cbeebd0423b",
          "transactionIndex": "0x1",
          "blockHash": "0xe0bc22928a77c5bea0e4a21c617cd64f2a31b410a7369ff7d7c3907621c26a8c",
          "blockNumber": "0x5759528",
          "gasUsed": "0x6836",
          "effectiveGasPrice": "0x5f5e100",
          "from": "0x64a822f980dc5f126215d75d11dd8114ed0bdb5f",
          "to": "0x9c92f11db296896c6d5e1bbbf3a3f44d52ea51ad",
          "contractAddress": null,
          "gasUsedForL1": "0x1c1",
          "l1BlockNumber": "0x69f0b3"
        }
      ],
      "libraries": [],
      "pending": [],
      "returns": {},
      "timestamp": 1729862424,
      "chain": 421614,
      "commit": "fce8454"
    }
  ],
  "timestamp": 1729862438
}